{
  "_format": "hh-sol-artifact-1",
  "contractName": "ChainVote",
  "sourceName": "contracts/ChainVote.sol",
  "abi": [
    {
      "inputs": [],
      "stateMutability": "nonpayable",
      "type": "constructor"
    },
    {
      "anonymous": false,
      "inputs": [
        {
          "indexed": true,
          "internalType": "uint256",
          "name": "candidateId",
          "type": "uint256"
        },
        {
          "indexed": false,
          "internalType": "string",
          "name": "name",
          "type": "string"
        }
      ],
      "name": "CandidateAdded",
      "type": "event"
    },
    {
      "anonymous": false,
      "inputs": [],
      "name": "ElectionEnded",
      "type": "event"
    },
    {
      "anonymous": false,
      "inputs": [],
      "name": "ElectionStarted",
      "type": "event"
    },
    {
      "anonymous": false,
      "inputs": [
        {
          "indexed": true,
          "internalType": "address",
          "name": "voter",
          "type": "address"
        },
        {
          "indexed": true,
          "internalType": "uint256",
          "name": "candidateId",
          "type": "uint256"
        },
        {
          "indexed": false,
          "internalType": "bytes32",
          "name": "voteHash",
          "type": "bytes32"
        }
      ],
      "name": "VoteCasted",
      "type": "event"
    },
    {
      "inputs": [
        {
          "internalType": "uint256",
          "name": "_id",
          "type": "uint256"
        },
        {
          "internalType": "string",
          "name": "_name",
          "type": "string"
        }
      ],
      "name": "addCandidate",
      "outputs": [],
      "stateMutability": "nonpayable",
      "type": "function"
    },
    {
      "inputs": [],
      "name": "admin",
      "outputs": [
        {
          "internalType": "address",
          "name": "",
          "type": "address"
        }
      ],
      "stateMutability": "view",
      "type": "function"
    },
    {
      "inputs": [
        {
          "internalType": "uint256",
          "name": "",
          "type": "uint256"
        }
      ],
      "name": "candidateIds",
      "outputs": [
        {
          "internalType": "uint256",
          "name": "",
          "type": "uint256"
        }
      ],
      "stateMutability": "view",
      "type": "function"
    },
    {
      "inputs": [
        {
          "internalType": "uint256",
          "name": "",
          "type": "uint256"
        }
      ],
      "name": "candidates",
      "outputs": [
        {
          "internalType": "uint256",
          "name": "id",
          "type": "uint256"
        },
        {
          "internalType": "string",
          "name": "name",
          "type": "string"
        },
        {
          "internalType": "uint256",
          "name": "voteCount",
          "type": "uint256"
        },
        {
          "internalType": "bool",
          "name": "exists",
          "type": "bool"
        }
      ],
      "stateMutability": "view",
      "type": "function"
    },
    {
      "inputs": [
        {
          "internalType": "uint256",
          "name": "_candidateId",
          "type": "uint256"
        }
      ],
      "name": "castVote",
      "outputs": [],
      "stateMutability": "nonpayable",
      "type": "function"
    },
    {
      "inputs": [],
      "name": "electionActive",
      "outputs": [
        {
          "internalType": "bool",
          "name": "",
          "type": "bool"
        }
      ],
      "stateMutability": "view",
      "type": "function"
    },
    {
      "inputs": [],
      "name": "endElection",
      "outputs": [],
      "stateMutability": "nonpayable",
      "type": "function"
    },
    {
      "inputs": [],
      "name": "getAllCandidates",
      "outputs": [
        {
          "components": [
            {
              "internalType": "uint256",
              "name": "id",
              "type": "uint256"
            },
            {
              "internalType": "string",
              "name": "name",
              "type": "string"
            },
            {
              "internalType": "uint256",
              "name": "voteCount",
              "type": "uint256"
            },
            {
              "internalType": "bool",
              "name": "exists",
              "type": "bool"
            }
          ],
          "internalType": "struct ChainVote.Candidate[]",
          "name": "",
          "type": "tuple[]"
        }
      ],
      "stateMutability": "view",
      "type": "function"
    },
    {
      "inputs": [],
      "name": "getLedgerLength",
      "outputs": [
        {
          "internalType": "uint256",
          "name": "",
          "type": "uint256"
        }
      ],
      "stateMutability": "view",
      "type": "function"
    },
    {
      "inputs": [
        {
          "internalType": "address",
          "name": "",
          "type": "address"
        }
      ],
      "name": "hasVoted",
      "outputs": [
        {
          "internalType": "bool",
          "name": "",
          "type": "bool"
        }
      ],
      "stateMutability": "view",
      "type": "function"
    },
    {
      "inputs": [],
      "name": "lastHash",
      "outputs": [
        {
          "internalType": "bytes32",
          "name": "",
          "type": "bytes32"
        }
      ],
      "stateMutability": "view",
      "type": "function"
    },
    {
      "inputs": [
        {
          "internalType": "uint256",
          "name": "",
          "type": "uint256"
        }
      ],
      "name": "ledger",
      "outputs": [
        {
          "internalType": "address",
          "name": "voter",
          "type": "address"
        },
        {
          "internalType": "uint256",
          "name": "candidateId",
          "type": "uint256"
        },
        {
          "internalType": "uint256",
          "name": "timestamp",
          "type": "uint256"
        },
        {
          "internalType": "bytes32",
          "name": "voteHash",
          "type": "bytes32"
        },
        {
          "internalType": "bytes32",
          "name": "prevHash",
          "type": "bytes32"
        }
      ],
      "stateMutability": "view",
      "type": "function"
    },
    {
      "inputs": [],
      "name": "startElection",
      "outputs": [],
      "stateMutability": "nonpayable",
      "type": "function"
    },
    {
      "inputs": [],
      "name": "verifyChain",
      "outputs": [
        {
          "internalType": "bool",
          "name": "isValid",
          "type": "bool"
        },
        {
          "internalType": "uint256",
          "name": "brokenIndex",
          "type": "uint256"
        }
      ],
      "stateMutability": "view",
      "type": "function"
    }
  ],
  "bytecode": "0x608060405234801561001057600080fd5b50336000806101000a81548173ffffffffffffffffffffffffffffffffffffffff021916908373ffffffffffffffffffffffffffffffffffffffff1602179055506000801b600581905550611c128061006a6000396000f3fe608060405234801561001057600080fd5b50600436106100ea5760003560e01c806339757da11161008c57806359f784681161006657806359f784681461026757806362d73eb8146102715780637ed628bb1461027b578063f851a44014610299576100ea565b806339757da11461020e5780633eb76b9c1461022d5780633fa2180614610249576100ea565b80631750a3d0116100c85780631750a3d0146101835780632306f6001461019f5780632e6997fe146101bd5780633477ee2e146101db576100ea565b806303016130146100ef57806309eef43e1461011f57806310a7fd7b1461014f575b600080fd5b61010960048036038101906101049190610f5b565b6102b7565b6040516101169190610f97565b60405180910390f35b61013960048036038101906101349190611010565b6102db565b6040516101469190611058565b60405180910390f35b61016960048036038101906101649190610f5b565b6102fb565b60405161017a95949392919061109b565b60405180910390f35b61019d60048036038101906101989190611234565b610361565b005b6101a761053d565b6040516101b49190610f97565b60405180910390f35b6101c561054a565b6040516101d29190611452565b60405180910390f35b6101f560048036038101906101f09190610f5b565b6106ef565b60405161020594939291906114be565b60405180910390f35b6102166107b4565b60405161022492919061150a565b60405180910390f35b61024760048036038101906102429190610f5b565b610923565b005b610251610c5e565b60405161025e9190611533565b60405180910390f35b61026f610c64565b005b610279610d89565b005b610283610eb0565b6040516102909190611058565b60405180910390f35b6102a1610ec3565b6040516102ae919061154e565b60405180910390f35b600281815481106102c757600080fd5b906000526020600020016000915090505481565b60046020528060005260406000206000915054906101000a900460ff1681565b6003818154811061030b57600080fd5b90600052602060002090600502016000915090508060000160009054906101000a900473ffffffffffffffffffffffffffffffffffffffff16908060010154908060020154908060030154908060040154905085565b60008054906101000a900473ffffffffffffffffffffffffffffffffffffffff1673ffffffffffffffffffffffffffffffffffffffff163373ffffffffffffffffffffffffffffffffffffffff16146103ef576040517f08c379a00000000000000000000000000000000000000000000000000000000081526004016103e6906115b5565b60405180910390fd5b6001600083815260200190815260200160002060030160009054906101000a900460ff1615610453576040517f08c379a000000000000000000000000000000000000000000000000000000000815260040161044a90611621565b60405180910390fd5b60405180608001604052808381526020018281526020016000815260200160011515815250600160008481526020019081526020016000206000820151816000015560208201518160010190816104aa919061184d565b506040820151816002015560608201518160030160006101000a81548160ff0219169083151502179055509050506002829080600181540180825580915050600190039060005260206000200160009091909190915055817fe83b2a43e7e82d975c8a0a6d2f045153c869e111136a34d1889ab7b598e396a382604051610531919061191f565b60405180910390a25050565b6000600380549050905090565b6060600060028054905067ffffffffffffffff81111561056d5761056c611109565b5b6040519080825280602002602001820160405280156105a657816020015b610593610ee7565b81526020019060019003908161058b5790505b50905060005b6002805490508110156106e75760016000600283815481106105d1576105d0611941565b5b906000526020600020015481526020019081526020016000206040518060800160405290816000820154815260200160018201805461060f90611670565b80601f016020809104026020016040519081016040528092919081815260200182805461063b90611670565b80156106885780601f1061065d57610100808354040283529160200191610688565b820191906000526020600020905b81548152906001019060200180831161066b57829003601f168201915b50505050508152602001600282015481526020016003820160009054906101000a900460ff1615151515815250508282815181106106c9576106c8611941565b5b602002602001018190525080806106df9061199f565b9150506105ac565b508091505090565b600160205280600052604060002060009150905080600001549080600101805461071890611670565b80601f016020809104026020016040519081016040528092919081815260200182805461074490611670565b80156107915780601f1061076657610100808354040283529160200191610791565b820191906000526020600020905b81548152906001019060200180831161077457829003601f168201915b5050505050908060020154908060030160009054906101000a900460ff16905084565b60008060008060001b905060005b600380549050811015610910576000600382815481106107e5576107e4611941565b5b90600052602060002090600502016040518060a00160405290816000820160009054906101000a900473ffffffffffffffffffffffffffffffffffffffff1673ffffffffffffffffffffffffffffffffffffffff1673ffffffffffffffffffffffffffffffffffffffff168152602001600182015481526020016002820154815260200160038201548152602001600482015481525050905082816080015114610898576000829450945050505061091f565b600081600001518260200151836040015184608001516040516020016108c194939291906119e7565b604051602081830303815290604052805190602001209050816060015181146108f457600083955095505050505061091f565b81606001519350505080806109089061199f565b9150506107c2565b50600160038054905092509250505b9091565b600060149054906101000a900460ff16610972576040517f08c379a000000000000000000000000000000000000000000000000000000000815260040161096990611a78565b60405180910390fd5b600460003373ffffffffffffffffffffffffffffffffffffffff1673ffffffffffffffffffffffffffffffffffffffff16815260200190815260200160002060009054906101000a900460ff16156109ff576040517f08c379a00000000000000000000000000000000000000000000000000000000081526004016109f690611ae4565b60405180910390fd5b6001600082815260200190815260200160002060030160009054906101000a900460ff16610a62576040517f08c379a0000000000000000000000000000000000000000000000000000000008152600401610a5990611b50565b60405180910390fd5b600060055490506000429050600033848385604051602001610a8794939291906119e7565b60405160208183030381529060405280519060200120905060006040518060a001604052803373ffffffffffffffffffffffffffffffffffffffff168152602001868152602001848152602001838152602001858152509050600381908060018154018082558091505060019003906000526020600020906005020160009091909190915060008201518160000160006101000a81548173ffffffffffffffffffffffffffffffffffffffff021916908373ffffffffffffffffffffffffffffffffffffffff160217905550602082015181600101556040820151816002015560608201518160030155608082015181600401555050600160008681526020019081526020016000206002016000815480929190610ba49061199f565b91905055506001600460003373ffffffffffffffffffffffffffffffffffffffff1673ffffffffffffffffffffffffffffffffffffffff16815260200190815260200160002060006101000a81548160ff02191690831515021790555081600581905550843373ffffffffffffffffffffffffffffffffffffffff167f5875b8cc3ce31cb0040429a8c38a241d6809ae4affed12c53c37536b45b1d1cb84604051610c4f9190611533565b60405180910390a35050505050565b60055481565b60008054906101000a900473ffffffffffffffffffffffffffffffffffffffff1673ffffffffffffffffffffffffffffffffffffffff163373ffffffffffffffffffffffffffffffffffffffff1614610cf2576040517f08c379a0000000000000000000000000000000000000000000000000000000008152600401610ce9906115b5565b60405180910390fd5b600060149054906101000a900460ff16610d41576040517f08c379a0000000000000000000000000000000000000000000000000000000008152600401610d3890611a78565b60405180910390fd5b60008060146101000a81548160ff0219169083151502179055507f66ec723071e4bb646f7b35d31bc2dee8510979bd8c180edd0690d4f5e802f1e460405160405180910390a1565b60008054906101000a900473ffffffffffffffffffffffffffffffffffffffff1673ffffffffffffffffffffffffffffffffffffffff163373ffffffffffffffffffffffffffffffffffffffff1614610e17576040517f08c379a0000000000000000000000000000000000000000000000000000000008152600401610e0e906115b5565b60405180910390fd5b600060149054906101000a900460ff1615610e67576040517f08c379a0000000000000000000000000000000000000000000000000000000008152600401610e5e90611bbc565b60405180910390fd5b6001600060146101000a81548160ff0219169083151502179055507fc475c26aa25ed8e85a7faa790e5f63b5d7ee1025f12821f4c9bfddd36ab4d11260405160405180910390a1565b600060149054906101000a900460ff1681565b60008054906101000a900473ffffffffffffffffffffffffffffffffffffffff1681565b60405180608001604052806000815260200160608152602001600081526020016000151581525090565b6000604051905090565b600080fd5b600080fd5b6000819050919050565b610f3881610f25565b8114610f4357600080fd5b50565b600081359050610f5581610f2f565b92915050565b600060208284031215610f7157610f70610f1b565b5b6000610f7f84828501610f46565b91505092915050565b610f9181610f25565b82525050565b6000602082019050610fac6000830184610f88565b92915050565b600073ffffffffffffffffffffffffffffffffffffffff82169050919050565b6000610fdd82610fb2565b9050919050565b610fed81610fd2565b8114610ff857600080fd5b50565b60008135905061100a81610fe4565b92915050565b60006020828403121561102657611025610f1b565b5b600061103484828501610ffb565b91505092915050565b60008115159050919050565b6110528161103d565b82525050565b600060208201905061106d6000830184611049565b92915050565b61107c81610fd2565b82525050565b6000819050919050565b61109581611082565b82525050565b600060a0820190506110b06000830188611073565b6110bd6020830187610f88565b6110ca6040830186610f88565b6110d7606083018561108c565b6110e4608083018461108c565b9695505050505050565b600080fd5b600080fd5b6000601f19601f8301169050919050565b7f4e487b7100000000000000000000000000000000000000000000000000000000600052604160045260246000fd5b611141826110f8565b810181811067ffffffffffffffff821117156111605761115f611109565b5b80604052505050565b6000611173610f11565b905061117f8282611138565b919050565b600067ffffffffffffffff82111561119f5761119e611109565b5b6111a8826110f8565b9050602081019050919050565b82818337600083830152505050565b60006111d76111d284611184565b611169565b9050828152602081018484840111156111f3576111f26110f3565b5b6111fe8482856111b5565b509392505050565b600082601f83011261121b5761121a6110ee565b5b813561122b8482602086016111c4565b91505092915050565b6000806040838503121561124b5761124a610f1b565b5b600061125985828601610f46565b925050602083013567ffffffffffffffff81111561127a57611279610f20565b5b61128685828601611206565b9150509250929050565b600081519050919050565b600082825260208201905092915050565b6000819050602082019050919050565b6112c581610f25565b82525050565b600081519050919050565b600082825260208201905092915050565b60005b838110156113055780820151818401526020810190506112ea565b60008484015250505050565b600061131c826112cb565b61132681856112d6565b93506113368185602086016112e7565b61133f816110f8565b840191505092915050565b6113538161103d565b82525050565b600060808301600083015161137160008601826112bc565b50602083015184820360208601526113898282611311565b915050604083015161139e60408601826112bc565b5060608301516113b1606086018261134a565b508091505092915050565b60006113c88383611359565b905092915050565b6000602082019050919050565b60006113e882611290565b6113f2818561129b565b935083602082028501611404856112ac565b8060005b85811015611440578484038952815161142185826113bc565b945061142c836113d0565b925060208a01995050600181019050611408565b50829750879550505050505092915050565b6000602082019050818103600083015261146c81846113dd565b905092915050565b600082825260208201905092915050565b6000611490826112cb565b61149a8185611474565b93506114aa8185602086016112e7565b6114b3816110f8565b840191505092915050565b60006080820190506114d36000830187610f88565b81810360208301526114e58186611485565b90506114f46040830185610f88565b6115016060830184611049565b95945050505050565b600060408201905061151f6000830185611049565b61152c6020830184610f88565b9392505050565b6000602082019050611548600083018461108c565b92915050565b60006020820190506115636000830184611073565b92915050565b7f4f6e6c792061646d696e2063616e2063616c6c20746869730000000000000000600082015250565b600061159f601883611474565b91506115aa82611569565b602082019050919050565b600060208201905081810360008301526115ce81611592565b9050919050565b7f43616e64696461746520494420616c7265616479206578697374730000000000600082015250565b600061160b601b83611474565b9150611616826115d5565b602082019050919050565b6000602082019050818103600083015261163a816115fe565b9050919050565b7f4e487b7100000000000000000000000000000000000000000000000000000000600052602260045260246000fd5b6000600282049050600182168061168857607f821691505b60208210810361169b5761169a611641565b5b50919050565b60008190508160005260206000209050919050565b60006020601f8301049050919050565b600082821b905092915050565b6000600883026117037fffffffffffffffffffffffffffffffffffffffffffffffffffffffffffffffff826116c6565b61170d86836116c6565b95508019841693508086168417925050509392505050565b6000819050919050565b600061174a61174561174084610f25565b611725565b610f25565b9050919050565b6000819050919050565b6117648361172f565b61177861177082611751565b8484546116d3565b825550505050565b600090565b61178d611780565b61179881848461175b565b505050565b5b818110156117bc576117b1600082611785565b60018101905061179e565b5050565b601f821115611801576117d2816116a1565b6117db846116b6565b810160208510156117ea578190505b6117fe6117f6856116b6565b83018261179d565b50505b505050565b600082821c905092915050565b600061182460001984600802611806565b1980831691505092915050565b600061183d8383611813565b9150826002028217905092915050565b611856826112cb565b67ffffffffffffffff81111561186f5761186e611109565b5b6118798254611670565b6118848282856117c0565b600060209050601f8311600181146118b757600084156118a5578287015190505b6118af8582611831565b865550611917565b601f1984166118c5866116a1565b60005b828110156118ed578489015182556001820191506020850194506020810190506118c8565b8683101561190a5784890151611906601f891682611813565b8355505b6001600288020188555050505b505050505050565b600060208201905081810360008301526119398184611485565b905092915050565b7f4e487b7100000000000000000000000000000000000000000000000000000000600052603260045260246000fd5b7f4e487b7100000000000000000000000000000000000000000000000000000000600052601160045260246000fd5b60006119aa82610f25565b91507fffffffffffffffffffffffffffffffffffffffffffffffffffffffffffffffff82036119dc576119db611970565b5b600182019050919050565b60006080820190506119fc6000830187611073565b611a096020830186610f88565b611a166040830185610f88565b611a23606083018461108c565b95945050505050565b7f456c656374696f6e206973206e6f742061637469766500000000000000000000600082015250565b6000611a62601683611474565b9150611a6d82611a2c565b602082019050919050565b60006020820190508181036000830152611a9181611a55565b9050919050565b7f416c726561647920766f74656400000000000000000000000000000000000000600082015250565b6000611ace600d83611474565b9150611ad982611a98565b602082019050919050565b60006020820190508181036000830152611afd81611ac1565b9050919050565b7f496e76616c69642063616e646964617465000000000000000000000000000000600082015250565b6000611b3a601183611474565b9150611b4582611b04565b602082019050919050565b60006020820190508181036000830152611b6981611b2d565b9050919050565b7f456c656374696f6e20616c726561647920616374697665000000000000000000600082015250565b6000611ba6601783611474565b9150611bb182611b70565b602082019050919050565b60006020820190508181036000830152611bd581611b99565b905091905056fea2646970667358221220a81cdd15b004b5180e23aed59f4326a5c5787a9c1670ab212c26aa6a1dee044164736f6c63430008140033",
  "linkReferences": {},
  "deployedLinkReferences": {}
}