{
  "_format": "hh-sol-artifact-1",
  "contractName": "ChainVote",
  "sourceName": "contracts/ChainVote.sol",
  "abi": [
    {
      "inputs": [],
      "stateMutability": "nonpayable",
      "type": "constructor"
    },
    {
      "anonymous": false,
      "inputs": [
        {
          "indexed": true,
          "internalType": "uint256",
          "name": "candidateId",
          "type": "uint256"
        },
        {
          "indexed": false,
          "internalType": "string",
          "name": "name",
          "type": "string"
        }
      ],
      "name": "CandidateAdded",
      "type": "event"
    },
    {
      "anonymous": false,
      "inputs": [],
      "name": "ElectionEnded",
      "type": "event"
    },
    {
      "anonymous": false,
      "inputs": [],
      "name": "ElectionStarted",
      "type": "event"
    },
    {
      "anonymous": false,
      "inputs": [
        {
          "indexed": true,
          "internalType": "address",
          "name": "voter",
          "type": "address"
        },
        {
          "indexed": true,
          "internalType": "uint256",
          "name": "candidateId",
          "type": "uint256"
        },
        {
          "indexed": false,
          "internalType": "bytes32",
          "name": "voteHash",
          "type": "bytes32"
        }
      ],
      "name": "VoteCasted",
      "type": "event"
    },
    {
      "inputs": [
        {
          "internalType": "uint256",
          "name": "_id",
          "type": "uint256"
        },
        {
          "internalType": "string",
          "name": "_name",
          "type": "string"
        }
      ],
      "name": "addCandidate",
      "outputs": [],
      "stateMutability": "nonpayable",
      "type": "function"
    },
    {
      "inputs": [],
      "name": "admin",
      "outputs": [
        {
          "internalType": "address",
          "name": "",
          "type": "address"
        }
      ],
      "stateMutability": "view",
      "type": "function"
    },
    {
      "inputs": [
        {
          "internalType": "uint256",
          "name": "",
          "type": "uint256"
        }
      ],
      "name": "candidateIds",
      "outputs": [
        {
          "internalType": "uint256",
          "name": "",
          "type": "uint256"
        }
      ],
      "stateMutability": "view",
      "type": "function"
    },
    {
      "inputs": [
        {
          "internalType": "uint256",
          "name": "",
          "type": "uint256"
        }
      ],
      "name": "candidates",
      "outputs": [
        {
          "internalType": "uint256",
          "name": "id",
          "type": "uint256"
        },
        {
          "internalType": "string",
          "name": "name",
          "type": "string"
        },
        {
          "internalType": "uint256",
          "name": "voteCount",
          "type": "uint256"
        },
        {
          "internalType": "bool",
          "name": "exists",
          "type": "bool"
        }
      ],
      "stateMutability": "view",
      "type": "function"
    },
    {
      "inputs": [
        {
          "internalType": "uint256",
          "name": "_candidateId",
          "type": "uint256"
        }
      ],
      "name": "castVote",
      "outputs": [],
      "stateMutability": "nonpayable",
      "type": "function"
    },
    {
      "inputs": [],
      "name": "electionActive",
      "outputs": [
        {
          "internalType": "bool",
          "name": "",
          "type": "bool"
        }
      ],
      "stateMutability": "view",
      "type": "function"
    },
    {
      "inputs": [],
      "name": "endElection",
      "outputs": [],
      "stateMutability": "nonpayable",
      "type": "function"
    },
    {
      "inputs": [],
      "name": "getAllCandidates",
      "outputs": [
        {
          "components": [
            {
              "internalType": "uint256",
              "name": "id",
              "type": "uint256"
            },
            {
              "internalType": "string",
              "name": "name",
              "type": "string"
            },
            {
              "internalType": "uint256",
              "name": "voteCount",
              "type": "uint256"
            },
            {
              "internalType": "bool",
              "name": "exists",
              "type": "bool"
            }
          ],
          "internalType": "struct ChainVote.Candidate[]",
          "name": "",
          "type": "tuple[]"
        }
      ],
      "stateMutability": "view",
      "type": "function"
    },
    {
      "inputs": [],
      "name": "getLedgerLength",
      "outputs": [
        {
          "internalType": "uint256",
          "name": "",
          "type": "uint256"
        }
      ],
      "stateMutability": "view",
      "type": "function"
    },
    {
      "inputs": [
        {
          "internalType": "address",
          "name": "",
          "type": "address"
        }
      ],
      "name": "hasVoted",
      "outputs": [
        {
          "internalType": "bool",
          "name": "",
          "type": "bool"
        }
      ],
      "stateMutability": "view",
      "type": "function"
    },
    {
      "inputs": [],
      "name": "lastHash",
      "outputs": [
        {
          "internalType": "bytes32",
          "name": "",
          "type": "bytes32"
        }
      ],
      "stateMutability": "view",
      "type": "function"
    },
    {
      "inputs": [
        {
          "internalType": "uint256",
          "name": "",
          "type": "uint256"
        }
      ],
      "name": "ledger",
      "outputs": [
        {
          "internalType": "address",
          "name": "voter",
          "type": "address"
        },
        {
          "internalType": "uint256",
          "name": "candidateId",
          "type": "uint256"
        },
        {
          "internalType": "uint256",
          "name": "timestamp",
          "type": "uint256"
        },
        {
          "internalType": "bytes32",
          "name": "voteHash",
          "type": "bytes32"
        },
        {
          "internalType": "bytes32",
          "name": "prevHash",
          "type": "bytes32"
        }
      ],
      "stateMutability": "view",
      "type": "function"
    },
    {
      "inputs": [],
      "name": "startElection",
      "outputs": [],
      "stateMutability": "nonpayable",
      "type": "function"
    },
    {
      "inputs": [],
      "name": "verifyChain",
      "outputs": [
        {
          "internalType": "bool",
          "name": "isValid",
          "type": "bool"
        },
        {
          "internalType": "uint256",
          "name": "brokenIndex",
          "type": "uint256"
        }
      ],
      "stateMutability": "view",
      "type": "function"
    }
  ],
  "bytecode": "0x608060405234801561001057600080fd5b50336000806101000a81548173ffffffffffffffffffffffffffffffffffffffff021916908373ffffffffffffffffffffffffffffffffffffffff1602179055506000801b600581905550611e538061006a6000396000f3fe608060405234801561001057600080fd5b50600436106100ea5760003560e01c806339757da11161008c57806359f784681161006657806359f784681461026757806362d73eb8146102715780637ed628bb1461027b578063f851a44014610299576100ea565b806339757da11461020e5780633eb76b9c1461022d5780633fa2180614610249576100ea565b80631750a3d0116100c85780631750a3d0146101835780632306f6001461019f5780632e6997fe146101bd5780633477ee2e146101db576100ea565b806303016130146100ef57806309eef43e1461011f57806310a7fd7b1461014f575b600080fd5b61010960048036038101906101049190611032565b6102b7565b604051610116919061106e565b60405180910390f35b610139600480360381019061013491906110e7565b6102db565b604051610146919061112f565b60405180910390f35b61016960048036038101906101649190611032565b6102fb565b60405161017a959493929190611172565b60405180910390f35b61019d6004803603810190610198919061130b565b610361565b005b6101a7610614565b6040516101b4919061106e565b60405180910390f35b6101c5610621565b6040516101d29190611529565b60405180910390f35b6101f560048036038101906101f09190611032565b6107c6565b6040516102059493929190611595565b60405180910390f35b61021661088b565b6040516102249291906115e1565b60405180910390f35b61024760048036038101906102429190611032565b6109fa565b005b610251610d35565b60405161025e919061160a565b60405180910390f35b61026f610d3b565b005b610279610e60565b005b610283610f87565b604051610290919061112f565b60405180910390f35b6102a1610f9a565b6040516102ae9190611625565b60405180910390f35b600281815481106102c757600080fd5b906000526020600020016000915090505481565b60046020528060005260406000206000915054906101000a900460ff1681565b6003818154811061030b57600080fd5b90600052602060002090600502016000915090508060000160009054906101000a900473ffffffffffffffffffffffffffffffffffffffff16908060010154908060020154908060030154908060040154905085565b60008054906101000a900473ffffffffffffffffffffffffffffffffffffffff1673ffffffffffffffffffffffffffffffffffffffff163373ffffffffffffffffffffffffffffffffffffffff16146103ef576040517f08c379a00000000000000000000000000000000000000000000000000000000081526004016103e69061168c565b60405180910390fd5b600060149054906101000a900460ff161561043f576040517f08c379a00000000000000000000000000000000000000000000000000000000081526004016104369061171e565b60405180910390fd5b60008203610482576040517f08c379a00000000000000000000000000000000000000000000000000000000081526004016104799061178a565b60405180910390fd5b60008151116104c6576040517f08c379a00000000000000000000000000000000000000000000000000000000081526004016104bd906117f6565b60405180910390fd5b6001600083815260200190815260200160002060030160009054906101000a900460ff161561052a576040517f08c379a000000000000000000000000000000000000000000000000000000000815260040161052190611862565b60405180910390fd5b60405180608001604052808381526020018281526020016000815260200160011515815250600160008481526020019081526020016000206000820151816000015560208201518160010190816105819190611a8e565b506040820151816002015560608201518160030160006101000a81548160ff0219169083151502179055509050506002829080600181540180825580915050600190039060005260206000200160009091909190915055817fe83b2a43e7e82d975c8a0a6d2f045153c869e111136a34d1889ab7b598e396a3826040516106089190611b60565b60405180910390a25050565b6000600380549050905090565b6060600060028054905067ffffffffffffffff811115610644576106436111e0565b5b60405190808252806020026020018201604052801561067d57816020015b61066a610fbe565b8152602001906001900390816106625790505b50905060005b6002805490508110156107be5760016000600283815481106106a8576106a7611b82565b5b90600052602060002001548152602001908152602001600020604051806080016040529081600082015481526020016001820180546106e6906118b1565b80601f0160208091040260200160405190810160405280929190818152602001828054610712906118b1565b801561075f5780601f106107345761010080835404028352916020019161075f565b820191906000526020600020905b81548152906001019060200180831161074257829003601f168201915b50505050508152602001600282015481526020016003820160009054906101000a900460ff1615151515815250508282815181106107a05761079f611b82565b5b602002602001018190525080806107b690611be0565b915050610683565b508091505090565b60016020528060005260406000206000915090508060000154908060010180546107ef906118b1565b80601f016020809104026020016040519081016040528092919081815260200182805461081b906118b1565b80156108685780601f1061083d57610100808354040283529160200191610868565b820191906000526020600020905b81548152906001019060200180831161084b57829003601f168201915b5050505050908060020154908060030160009054906101000a900460ff16905084565b60008060008060001b905060005b6003805490508110156109e7576000600382815481106108bc576108bb611b82565b5b90600052602060002090600502016040518060a00160405290816000820160009054906101000a900473ffffffffffffffffffffffffffffffffffffffff1673ffffffffffffffffffffffffffffffffffffffff1673ffffffffffffffffffffffffffffffffffffffff16815260200160018201548152602001600282015481526020016003820154815260200160048201548152505090508281608001511461096f57600082945094505050506109f6565b600081600001518260200151836040015184608001516040516020016109989493929190611c28565b604051602081830303815290604052805190602001209050816060015181146109cb5760008395509550505050506109f6565b81606001519350505080806109df90611be0565b915050610899565b50600160038054905092509250505b9091565b600060149054906101000a900460ff16610a49576040517f08c379a0000000000000000000000000000000000000000000000000000000008152600401610a4090611cb9565b60405180910390fd5b600460003373ffffffffffffffffffffffffffffffffffffffff1673ffffffffffffffffffffffffffffffffffffffff16815260200190815260200160002060009054906101000a900460ff1615610ad6576040517f08c379a0000000000000000000000000000000000000000000000000000000008152600401610acd90611d25565b60405180910390fd5b6001600082815260200190815260200160002060030160009054906101000a900460ff16610b39576040517f08c379a0000000000000000000000000000000000000000000000000000000008152600401610b3090611d91565b60405180910390fd5b600060055490506000429050600033848385604051602001610b5e9493929190611c28565b60405160208183030381529060405280519060200120905060006040518060a001604052803373ffffffffffffffffffffffffffffffffffffffff168152602001868152602001848152602001838152602001858152509050600381908060018154018082558091505060019003906000526020600020906005020160009091909190915060008201518160000160006101000a81548173ffffffffffffffffffffffffffffffffffffffff021916908373ffffffffffffffffffffffffffffffffffffffff160217905550602082015181600101556040820151816002015560608201518160030155608082015181600401555050600160008681526020019081526020016000206002016000815480929190610c7b90611be0565b91905055506001600460003373ffffffffffffffffffffffffffffffffffffffff1673ffffffffffffffffffffffffffffffffffffffff16815260200190815260200160002060006101000a81548160ff02191690831515021790555081600581905550843373ffffffffffffffffffffffffffffffffffffffff167f5875b8cc3ce31cb0040429a8c38a241d6809ae4affed12c53c37536b45b1d1cb84604051610d26919061160a565b60405180910390a35050505050565b60055481565b60008054906101000a900473ffffffffffffffffffffffffffffffffffffffff1673ffffffffffffffffffffffffffffffffffffffff163373ffffffffffffffffffffffffffffffffffffffff1614610dc9576040517f08c379a0000000000000000000000000000000000000000000000000000000008152600401610dc09061168c565b60405180910390fd5b600060149054906101000a900460ff16610e18576040517f08c379a0000000000000000000000000000000000000000000000000000000008152600401610e0f90611cb9565b60405180910390fd5b60008060146101000a81548160ff0219169083151502179055507f66ec723071e4bb646f7b35d31bc2dee8510979bd8c180edd0690d4f5e802f1e460405160405180910390a1565b60008054906101000a900473ffffffffffffffffffffffffffffffffffffffff1673ffffffffffffffffffffffffffffffffffffffff163373ffffffffffffffffffffffffffffffffffffffff1614610eee576040517f08c379a0000000000000000000000000000000000000000000000000000000008152600401610ee59061168c565b60405180910390fd5b600060149054906101000a900460ff1615610f3e576040517f08c379a0000000000000000000000000000000000000000000000000000000008152600401610f3590611dfd565b60405180910390fd5b6001600060146101000a81548160ff0219169083151502179055507fc475c26aa25ed8e85a7faa790e5f63b5d7ee1025f12821f4c9bfddd36ab4d11260405160405180910390a1565b600060149054906101000a900460ff1681565b60008054906101000a900473ffffffffffffffffffffffffffffffffffffffff1681565b60405180608001604052806000815260200160608152602001600081526020016000151581525090565b6000604051905090565b600080fd5b600080fd5b6000819050919050565b61100f81610ffc565b811461101a57600080fd5b50565b60008135905061102c81611006565b92915050565b60006020828403121561104857611047610ff2565b5b60006110568482850161101d565b91505092915050565b61106881610ffc565b82525050565b6000602082019050611083600083018461105f565b92915050565b600073ffffffffffffffffffffffffffffffffffffffff82169050919050565b60006110b482611089565b9050919050565b6110c4816110a9565b81146110cf57600080fd5b50565b6000813590506110e1816110bb565b92915050565b6000602082840312156110fd576110fc610ff2565b5b600061110b848285016110d2565b91505092915050565b60008115159050919050565b61112981611114565b82525050565b60006020820190506111446000830184611120565b92915050565b611153816110a9565b82525050565b6000819050919050565b61116c81611159565b82525050565b600060a082019050611187600083018861114a565b611194602083018761105f565b6111a1604083018661105f565b6111ae6060830185611163565b6111bb6080830184611163565b9695505050505050565b600080fd5b600080fd5b6000601f19601f8301169050919050565b7f4e487b7100000000000000000000000000000000000000000000000000000000600052604160045260246000fd5b611218826111cf565b810181811067ffffffffffffffff82111715611237576112366111e0565b5b80604052505050565b600061124a610fe8565b9050611256828261120f565b919050565b600067ffffffffffffffff821115611276576112756111e0565b5b61127f826111cf565b9050602081019050919050565b82818337600083830152505050565b60006112ae6112a98461125b565b611240565b9050828152602081018484840111156112ca576112c96111ca565b5b6112d584828561128c565b509392505050565b600082601f8301126112f2576112f16111c5565b5b813561130284826020860161129b565b91505092915050565b6000806040838503121561132257611321610ff2565b5b60006113308582860161101d565b925050602083013567ffffffffffffffff81111561135157611350610ff7565b5b61135d858286016112dd565b9150509250929050565b600081519050919050565b600082825260208201905092915050565b6000819050602082019050919050565b61139c81610ffc565b82525050565b600081519050919050565b600082825260208201905092915050565b60005b838110156113dc5780820151818401526020810190506113c1565b60008484015250505050565b60006113f3826113a2565b6113fd81856113ad565b935061140d8185602086016113be565b611416816111cf565b840191505092915050565b61142a81611114565b82525050565b60006080830160008301516114486000860182611393565b506020830151848203602086015261146082826113e8565b91505060408301516114756040860182611393565b5060608301516114886060860182611421565b508091505092915050565b600061149f8383611430565b905092915050565b6000602082019050919050565b60006114bf82611367565b6114c98185611372565b9350836020820285016114db85611383565b8060005b8581101561151757848403895281516114f88582611493565b9450611503836114a7565b925060208a019950506001810190506114df565b50829750879550505050505092915050565b6000602082019050818103600083015261154381846114b4565b905092915050565b600082825260208201905092915050565b6000611567826113a2565b611571818561154b565b93506115818185602086016113be565b61158a816111cf565b840191505092915050565b60006080820190506115aa600083018761105f565b81810360208301526115bc818661155c565b90506115cb604083018561105f565b6115d86060830184611120565b95945050505050565b60006040820190506115f66000830185611120565b611603602083018461105f565b9392505050565b600060208201905061161f6000830184611163565b92915050565b600060208201905061163a600083018461114a565b92915050565b7f4f6e6c792061646d696e2063616e2063616c6c20746869730000000000000000600082015250565b600061167660188361154b565b915061168182611640565b602082019050919050565b600060208201905081810360008301526116a581611669565b9050919050565b7f43616e6e6f74206164642063616e64696461746573207768696c6520656c656360008201527f74696f6e20697320616374697665000000000000000000000000000000000000602082015250565b6000611708602e8361154b565b9150611713826116ac565b604082019050919050565b60006020820190508181036000830152611737816116fb565b9050919050565b7f43616e646964617465204944206d757374206265206e6f6e2d7a65726f000000600082015250565b6000611774601d8361154b565b915061177f8261173e565b602082019050919050565b600060208201905081810360008301526117a381611767565b9050919050565b7f43616e646964617465206e616d65206973207265717569726564000000000000600082015250565b60006117e0601a8361154b565b91506117eb826117aa565b602082019050919050565b6000602082019050818103600083015261180f816117d3565b9050919050565b7f43616e64696461746520494420616c7265616479206578697374730000000000600082015250565b600061184c601b8361154b565b915061185782611816565b602082019050919050565b6000602082019050818103600083015261187b8161183f565b9050919050565b7f4e487b7100000000000000000000000000000000000000000000000000000000600052602260045260246000fd5b600060028204905060018216806118c957607f821691505b6020821081036118dc576118db611882565b5b50919050565b60008190508160005260206000209050919050565b60006020601f8301049050919050565b600082821b905092915050565b6000600883026119447fffffffffffffffffffffffffffffffffffffffffffffffffffffffffffffffff82611907565b61194e8683611907565b95508019841693508086168417925050509392505050565b6000819050919050565b600061198b61198661198184610ffc565b611966565b610ffc565b9050919050565b6000819050919050565b6119a583611970565b6119b96119b182611992565b848454611914565b825550505050565b600090565b6119ce6119c1565b6119d981848461199c565b505050565b5b818110156119fd576119f26000826119c6565b6001810190506119df565b5050565b601f821115611a4257611a13816118e2565b611a1c846118f7565b81016020851015611a2b578190505b611a3f611a37856118f7565b8301826119de565b50505b505050565b600082821c905092915050565b6000611a6560001984600802611a47565b1980831691505092915050565b6000611a7e8383611a54565b9150826002028217905092915050565b611a97826113a2565b67ffffffffffffffff811115611ab057611aaf6111e0565b5b611aba82546118b1565b611ac5828285611a01565b600060209050601f831160018114611af85760008415611ae6578287015190505b611af08582611a72565b865550611b58565b601f198416611b06866118e2565b60005b82811015611b2e57848901518255600182019150602085019450602081019050611b09565b86831015611b4b5784890151611b47601f891682611a54565b8355505b6001600288020188555050505b505050505050565b60006020820190508181036000830152611b7a818461155c565b905092915050565b7f4e487b7100000000000000000000000000000000000000000000000000000000600052603260045260246000fd5b7f4e487b7100000000000000000000000000000000000000000000000000000000600052601160045260246000fd5b6000611beb82610ffc565b91507fffffffffffffffffffffffffffffffffffffffffffffffffffffffffffffffff8203611c1d57611c1c611bb1565b5b600182019050919050565b6000608082019050611c3d600083018761114a565b611c4a602083018661105f565b611c57604083018561105f565b611c646060830184611163565b95945050505050565b7f456c656374696f6e206973206e6f742061637469766500000000000000000000600082015250565b6000611ca360168361154b565b9150611cae82611c6d565b602082019050919050565b60006020820190508181036000830152611cd281611c96565b9050919050565b7f416c726561647920766f74656400000000000000000000000000000000000000600082015250565b6000611d0f600d8361154b565b9150611d1a82611cd9565b602082019050919050565b60006020820190508181036000830152611d3e81611d02565b9050919050565b7f496e76616c69642063616e646964617465000000000000000000000000000000600082015250565b6000611d7b60118361154b565b9150611d8682611d45565b602082019050919050565b60006020820190508181036000830152611daa81611d6e565b9050919050565b7f456c656374696f6e20616c726561647920616374697665000000000000000000600082015250565b6000611de760178361154b565b9150611df282611db1565b602082019050919050565b60006020820190508181036000830152611e1681611dda565b905091905056fea26469706673582212206529fd08f7929af639598dfeea6cb9e9bfd35463763779ffca652dd1ead9a71b64736f6c63430008140033",
  "linkReferences": {},
  "deployedLinkReferences": {}
}